:100000000C945D000C9485000C9485000C94850084
:100010000C9485000C9485000C9485000C9485004C
:100020000C9485000C9485000C9485000C9485003C
:100030000C9485000C9485000C9485000C9485002C
:100040000C946D020C9485000C94DD020C94B702A4
:100050000C9485000C9485000C9485000C9485000C
:100060000C9485000C9485000000000024002700FB
:100070002A0000000000250028002B0004040404CE
:100080000404040402020202020203030303030342
:10009000010204081020408001020408102001021F
:1000A00004081020000000080002010000030407FB
:1000B00000000000000000000F0311241FBECFEF5E
:1000C000D8E0DEBFCDBF11E0A0E0B1E0EAE1FCE0A6
:1000D00002C005900D92A231B107D9F721E0A2E14B
:1000E000B1E001C01D92A83CB207E1F710E0CDE5F8
:1000F000D0E004C02197FE010E940506CC35D1074F
:10010000C9F70E9446030C940B060C940000E1EB27
:10011000F0E02491EDE9F0E09491E9E8F0E0E49179
:10012000EE23C9F0222339F0233001F1A8F4213065
:1001300019F1223029F1F0E0EE0FFF1FEE58FF4FCA
:10014000A591B4912FB7F894EC91811126C09095A8
:100150009E239C932FBF08952730A9F02830C9F023
:10016000243049F7209180002F7D03C0209180002A
:100170002F7720938000DFCF24B52F7724BDDBCFEE
:1001800024B52F7DFBCF2091B0002F772093B000B6
:10019000D2CF2091B0002F7DF9CF9E2BDACFAF9236
:1001A000BF92CF92DF92EF92FF920F931F93CF9364
:1001B000DF936C017B018B01040F151FEB015E01C6
:1001C000AE18BF08C017D10759F06991D601ED915B
:1001D000FC910190F081E02DC6010995892B79F7FA
:1001E000C501DF91CF911F910F91FF90EF90DF90AC
:1001F000CF90BF90AF900895FC01538D448D252F73
:1002000030E0842F90E0821B930B541710F0CF96B0
:10021000089501970895FC01918D828D981761F0E2
:10022000A28DAE0FBF2FB11D5D968C91928D9F5FF9
:100230009F73928F90E008958FEF9FEF0895FC01D8
:10024000918D828D981731F0828DE80FF11D858D8B
:1002500090E008958FEF9FEF0895FC01918D228D1E
:10026000892F90E0805C9F4F821B91098F739927A3
:1002700008958DE191E00E942D0121E0892B09F480
:1002800020E0822F089580E090E0892B29F00E94E1
:10029000390181110C9400000895FC01A48DA80F70
:1002A000B92FB11DA35ABF4F2C91848D90E00196B8
:1002B0008F739927848FA689B7892C93A089B189D8
:1002C0008C91837080648C93938D848D981306C079
:1002D0000288F389E02D80818F7D80830895EF92DD
:1002E000FF920F931F93CF93DF93EC0181E0888FF0
:1002F0009B8D8C8D98131AC0E889F989808185FFC0
:1003000015C09FB7F894EE89FF896083E889F98961
:1003100080818370806480839FBF81E090E0DF9163
:10032000CF911F910F91FF90EF900895F62E0B8DB6
:1003300010E00F5F1F4F0F731127E02E8C8D8E1171
:100340000CC00FB607FCFACFE889F989808185FFD8
:10035000F5CFCE010E944D01F1CFEB8DEC0FFD2FBB
:10036000F11DE35AFF4FF0829FB7F8940B8FEA8993
:10037000FB8980818062CFCFCF93DF93EC01888DA2
:100380008823B9F0AA89BB89E889F9898C9185FD10
:1003900003C0808186FD0DC00FB607FCF7CF8C919E
:1003A00085FFF2CF808185FFEDCFCE010E944D0108
:1003B000E9CFDF91CF910895FC018281882329F153
:1003C0003FB7F8948091140190911501A091160106
:1003D000B091170126B5A89B05C02F3F19F00196D3
:1003E000A11DB11D3FBFBA2FA92F982F8827BC018F
:1003F000CD01620F711D811D911D42E0660F771FB7
:10040000881F991F4A95D1F708952FB7F8946091E6
:10041000190170911A0180911B0190911C012FBF4D
:1004200008954F925F926F927F928F929F92AF92B8
:10043000BF92DF92EF92FF920F931F93CF93DF93C0
:10044000EC01D62E29013A0147015801888186170F
:1004500041F06883CE010E94DC016B837C838D8335
:100460009E838981811125C0DD2091F0CE010E94FB
:10047000DC018B809C80AD80BE80681979098A0977
:100480009B09641575058605970510F081E0898341
:100490008981DF91CF911F910F91FF90EF90DF90B5
:1004A000BF90AF909F908F907F906F905F904F9094
:1004B0000895D110EDCFCE010E94DC014B805C800D
:1004C0006D807E806419750986099709681579051C
:1004D0008A059B05E8F21982DBCF1F920F920FB6B7
:1004E0000F9211242F933F938F939F93AF93BF93BA
:1004F0008091190190911A01A0911B01B0911C01EA
:100500003091180123E0230F2D3758F50196A11DD6
:10051000B11D209318018093190190931A01A093A3
:100520001B01B0931C018091140190911501A091C1
:100530001601B09117010196A11DB11D8093140100
:1005400090931501A0931601B0931701BF91AF913D
:100550009F918F913F912F910F900FBE0F901F9001
:10056000189526E8230F0296A11DB11DD2CF1F9228
:100570000F920FB60F9211242F933F934F935F93D7
:100580006F937F938F939F93AF93BF93EF93FF935B
:100590008DE191E00E944D01FF91EF91BF91AF91EC
:1005A0009F918F917F916F915F914F913F912F918B
:1005B0000F900FBE0F901F9018951F920F920FB6BD
:1005C0000F9211242F938F939F93EF93FF93E091BA
:1005D0002D01F0912E018081E0913301F0913401E1
:1005E00082FD1BC09081809136018F5F8F732091B7
:1005F0003701821741F0E0913601F0E0E35EFE4FF3
:10060000958F80933601FF91EF919F918F912F915C
:100610000F900FBE0F901F9018958081F4CFEDE1E1
:10062000F1E01382128288EE93E0A0E0B0E08483D0
:100630009583A683B78384E091E09183808385ECE2
:1006400090E09587848784EC90E09787868780EC9C
:1006500090E0918B808B81EC90E0938B828B82EC8D
:1006600090E0958B848B86EC90E0978B868B118E37
:10067000128E138E148EE1ECF1E012821082118240
:10068000EAEBF1E01282108211820895789484B529
:10069000826084BD84B5816084BD85B5826085BD7E
:1006A00085B5816085BD80916E00816080936E000C
:1006B00010928100809181008260809381008091FE
:1006C00081008160809381008091800081608093AF
:1006D00080008091B10084608093B1008091B0006F
:1006E00081608093B00080917A00846080937A006A
:1006F00080917A00826080937A0080917A00816094
:1007000080937A0080917A00806880937A001092BA
:10071000C100E0912D01F0912E0182E08083E091F3
:100720002901F0912A011082E0912B01F0912C0116
:100730008FEC808310923501E0913101F09132010C
:1007400086E08083E0912F01F0913001808180610B
:100750008083E0912F01F091300180818860808357
:10076000E0912F01F0913001808180688083E091D9
:100770002F01F091300180818F7D8083EDE9F0E0E1
:100780002491E9E8F0E08491882399F090E0880FC3
:10079000991FFC01E859FF4FA591B491FC01EE5857
:1007A000FF4F859194918FB7F894EC91E22BEC93E5
:1007B0008FBF80E00E948700EEE9F0E02491EAE834
:1007C000F0E084918823C1F090E0880F991FFC012C
:1007D000E859FF4FC591D491FC01EE58FF4FA59108
:1007E000B4919FB7F8948881E22FE0958E23888397
:1007F0008C91E823EC939FBF20E4C22EDD24D39498
:10080000C0E0D0E0C0927C0080917A008064809348
:100810007A0080917A0086FDFCCF6091780070911B
:100820007900072E000C880B990B0E94E30426EF39
:1008300038E24CE950E40E94980520E030E040E2C4
:1008400051E40E946F044B015C0120E030E040EF76
:1008500051E40E946A0487FF1FC0609113016D2557
:100860001AEFE12EF12C00E010E02AEF30E040E03A
:1008700050E081EC91E00E941102809313010E94EC
:100880008700209709F4BECF0E943901882309F41C
:10089000B9CF0E940000B6CF20E030E040EF51E435
:1008A000C501B4010E94930587FDEBCF6091120151
:1008B0006D2514EFE12EFF24F39400E010E024EF07
:1008C00031E040E050E08AEB91E00E941102809319
:1008D0001201D5CF0E941E0508F481E008950E9400
:1008E00083040C9459050E94520558F00E944B0550
:1008F00040F029F45F3F29F00C94420551110C940B
:100900008D050C9448050E946A0568F39923B1F39C
:10091000552391F3951B550BBB27AA276217730725
:10092000840738F09F5F5F4F220F331F441FAA1FB9
:10093000A9F335D00E2E3AF0E0E832D09150504075
:10094000E695001CCAF72BD0FE2F29D0660F771F23
:10095000881FBB1F261737074807AB07B0E809F009
:10096000BB0B802DBF01FF2793585F4F3AF09E3F8E
:10097000510578F00C9442050C948D055F3FE4F32B
:10098000983ED4F3869577956795B795F7959F5FD1
:10099000C9F7880F911D9695879597F90895E1E01D
:1009A000660F771F881FBB1F621773078407BA077C
:1009B00020F0621B730B840BBA0BEE1F88F7E095D7
:1009C0000895E89409C097FB3EF490958095709542
:1009D00061957F4F8F4F9F4F9923A9F0F92F96E98B
:1009E000BB279395F695879577956795B795F11100
:1009F000F8CFFAF4BB0F11F460FF1BC06F5F7F4F9D
:100A00008F4F9F4F16C0882311F096E911C07723AE
:100A100021F09EE8872F762F05C0662371F096E8B7
:100A2000862F70E060E02AF09A95660F771F881F86
:100A3000DAF7880F9695879597F90895990F00082A
:100A4000550FAA0BE0E8FEEF16161706E807F907A0
:100A5000C0F012161306E407F50798F0621B730B3B
:100A6000840B950B39F40A2661F0232B242B252BBC
:100A700021F408950A2609F4A140A6958FEF811D5F
:100A8000811D089597F99F6780E870E060E0089500
:100A90009FEF80EC089500240A9416161706180696
:100AA0000906089500240A94121613061406050672
:100AB0000895092E0394000C11F4882352F0BB0F03
:100AC00040F4BF2B11F460FF04C06F5F7F4F8F4F66
:100AD0009F4F089557FD9058440F551F59F05F3FA1
:100AE00071F04795880F97FB991F61F09F3F79F050
:100AF00087950895121613061406551FF2CF4695D2
:100B0000F1DF08C0161617061806991FF1CF869553
:100B10007105610508940895E894BB276627772737
:100B2000CB0197F908950E941E0508F48FEF0895F0
:100B30000E94AB050C9459050E944B0538F00E94A9
:100B4000520520F0952311F00C9442050C944805B1
:100B500011240C948D050E946A0570F3959FC1F3D2
:100B6000950F50E0551F629FF001729FBB27F00D5B
:100B7000B11D639FAA27F00DB11DAA1F649F6627B0
:100B8000B00DA11D661F829F2227B00DA11D621FFF
:100B9000739FB00DA11D621F839FA00D611D221FB9
:100BA000749F3327A00D611D231F849F600D211D9D
:100BB000822F762F6A2F11249F5750409AF0F1F020
:100BC00088234AF0EE0FFF1FBB1F661F771F881F89
:100BD00091505040A9F79E3F510580F00C9442057A
:100BE0000C948D055F3FE4F3983ED4F3869577959A
:100BF0006795B795F795E7959F5FC1F7FE2B880F2F
:100C0000911D9695879597F90895EE0FFF1F059012
:0A0C1000F491E02D0994F894FFCF51
:100C1A00000000006F01CF00FC00BC012D010B0198
:020C2A001F01A8
:00000001FF
